{
  "_format": "hh-sol-artifact-1",
  "contractName": "Diasosi",
  "sourceName": "src/contracts/Diasosi.sol",
  "abi": [
    {
      "inputs": [
        {
          "internalType": "string",
          "name": "_name",
          "type": "string"
        },
        {
          "internalType": "string",
          "name": "_symbol",
          "type": "string"
        },
        {
          "internalType": "string",
          "name": "_initBaseURI",
          "type": "string"
        }
      ],
      "stateMutability": "nonpayable",
      "type": "constructor"
    },
    {
      "anonymous": false,
      "inputs": [
        {
          "indexed": true,
          "internalType": "address",
          "name": "owner",
          "type": "address"
        },
        {
          "indexed": true,
          "internalType": "address",
          "name": "approved",
          "type": "address"
        },
        {
          "indexed": true,
          "internalType": "uint256",
          "name": "tokenId",
          "type": "uint256"
        }
      ],
      "name": "Approval",
      "type": "event"
    },
    {
      "anonymous": false,
      "inputs": [
        {
          "indexed": true,
          "internalType": "address",
          "name": "owner",
          "type": "address"
        },
        {
          "indexed": true,
          "internalType": "address",
          "name": "operator",
          "type": "address"
        },
        {
          "indexed": false,
          "internalType": "bool",
          "name": "approved",
          "type": "bool"
        }
      ],
      "name": "ApprovalForAll",
      "type": "event"
    },
    {
      "anonymous": false,
      "inputs": [
        {
          "indexed": true,
          "internalType": "address",
          "name": "previousOwner",
          "type": "address"
        },
        {
          "indexed": true,
          "internalType": "address",
          "name": "newOwner",
          "type": "address"
        }
      ],
      "name": "OwnershipTransferred",
      "type": "event"
    },
    {
      "anonymous": false,
      "inputs": [
        {
          "indexed": false,
          "internalType": "address",
          "name": "account",
          "type": "address"
        }
      ],
      "name": "Paused",
      "type": "event"
    },
    {
      "anonymous": false,
      "inputs": [
        {
          "indexed": true,
          "internalType": "address",
          "name": "from",
          "type": "address"
        },
        {
          "indexed": true,
          "internalType": "address",
          "name": "to",
          "type": "address"
        },
        {
          "indexed": true,
          "internalType": "uint256",
          "name": "tokenId",
          "type": "uint256"
        }
      ],
      "name": "Transfer",
      "type": "event"
    },
    {
      "anonymous": false,
      "inputs": [
        {
          "indexed": false,
          "internalType": "address",
          "name": "account",
          "type": "address"
        }
      ],
      "name": "Unpaused",
      "type": "event"
    },
    {
      "anonymous": false,
      "inputs": [
        {
          "indexed": false,
          "internalType": "uint256",
          "name": "id",
          "type": "uint256"
        },
        {
          "indexed": true,
          "internalType": "address",
          "name": "buyer",
          "type": "address"
        },
        {
          "indexed": true,
          "internalType": "string",
          "name": "tokenURI",
          "type": "string"
        },
        {
          "indexed": false,
          "internalType": "uint256",
          "name": "timestamp",
          "type": "uint256"
        }
      ],
      "name": "onSale",
      "type": "event"
    },
    {
      "inputs": [
        {
          "internalType": "address",
          "name": "to",
          "type": "address"
        },
        {
          "internalType": "uint256",
          "name": "tokenId",
          "type": "uint256"
        }
      ],
      "name": "approve",
      "outputs": [],
      "stateMutability": "nonpayable",
      "type": "function"
    },
    {
      "inputs": [
        {
          "internalType": "address",
          "name": "owner",
          "type": "address"
        }
      ],
      "name": "balanceOf",
      "outputs": [
        {
          "internalType": "uint256",
          "name": "",
          "type": "uint256"
        }
      ],
      "stateMutability": "view",
      "type": "function"
    },
    {
      "inputs": [],
      "name": "baseExtension",
      "outputs": [
        {
          "internalType": "string",
          "name": "",
          "type": "string"
        }
      ],
      "stateMutability": "view",
      "type": "function"
    },
    {
      "inputs": [],
      "name": "baseImage",
      "outputs": [
        {
          "internalType": "string",
          "name": "",
          "type": "string"
        }
      ],
      "stateMutability": "view",
      "type": "function"
    },
    {
      "inputs": [],
      "name": "getAllNFTs",
      "outputs": [
        {
          "components": [
            {
              "internalType": "uint256",
              "name": "id",
              "type": "uint256"
            },
            {
              "internalType": "address",
              "name": "buyer",
              "type": "address"
            },
            {
              "internalType": "string",
              "name": "imageURL",
              "type": "string"
            },
            {
              "internalType": "uint256",
              "name": "timestamp",
              "type": "uint256"
            }
          ],
          "internalType": "struct Diasosi.mintSale[]",
          "name": "",
          "type": "tuple[]"
        }
      ],
      "stateMutability": "view",
      "type": "function"
    },
    {
      "inputs": [
        {
          "internalType": "uint256",
          "name": "tokenId",
          "type": "uint256"
        }
      ],
      "name": "getApproved",
      "outputs": [
        {
          "internalType": "address",
          "name": "",
          "type": "address"
        }
      ],
      "stateMutability": "view",
      "type": "function"
    },
    {
      "inputs": [
        {
          "internalType": "address",
          "name": "owner",
          "type": "address"
        },
        {
          "internalType": "address",
          "name": "operator",
          "type": "address"
        }
      ],
      "name": "isApprovedForAll",
      "outputs": [
        {
          "internalType": "bool",
          "name": "",
          "type": "bool"
        }
      ],
      "stateMutability": "view",
      "type": "function"
    },
    {
      "inputs": [],
      "name": "name",
      "outputs": [
        {
          "internalType": "string",
          "name": "",
          "type": "string"
        }
      ],
      "stateMutability": "view",
      "type": "function"
    },
    {
      "inputs": [],
      "name": "owner",
      "outputs": [
        {
          "internalType": "address",
          "name": "",
          "type": "address"
        }
      ],
      "stateMutability": "view",
      "type": "function"
    },
    {
      "inputs": [
        {
          "internalType": "uint256",
          "name": "tokenId",
          "type": "uint256"
        }
      ],
      "name": "ownerOf",
      "outputs": [
        {
          "internalType": "address",
          "name": "",
          "type": "address"
        }
      ],
      "stateMutability": "view",
      "type": "function"
    },
    {
      "inputs": [],
      "name": "pause",
      "outputs": [],
      "stateMutability": "nonpayable",
      "type": "function"
    },
    {
      "inputs": [],
      "name": "paused",
      "outputs": [
        {
          "internalType": "bool",
          "name": "",
          "type": "bool"
        }
      ],
      "stateMutability": "view",
      "type": "function"
    },
    {
      "inputs": [],
      "name": "renounceOwnership",
      "outputs": [],
      "stateMutability": "nonpayable",
      "type": "function"
    },
    {
      "inputs": [
        {
          "internalType": "address",
          "name": "to",
          "type": "address"
        },
        {
          "internalType": "string",
          "name": "uri",
          "type": "string"
        }
      ],
      "name": "safeMint",
      "outputs": [],
      "stateMutability": "nonpayable",
      "type": "function"
    },
    {
      "inputs": [
        {
          "internalType": "address",
          "name": "from",
          "type": "address"
        },
        {
          "internalType": "address",
          "name": "to",
          "type": "address"
        },
        {
          "internalType": "uint256",
          "name": "tokenId",
          "type": "uint256"
        }
      ],
      "name": "safeTransferFrom",
      "outputs": [],
      "stateMutability": "nonpayable",
      "type": "function"
    },
    {
      "inputs": [
        {
          "internalType": "address",
          "name": "from",
          "type": "address"
        },
        {
          "internalType": "address",
          "name": "to",
          "type": "address"
        },
        {
          "internalType": "uint256",
          "name": "tokenId",
          "type": "uint256"
        },
        {
          "internalType": "bytes",
          "name": "data",
          "type": "bytes"
        }
      ],
      "name": "safeTransferFrom",
      "outputs": [],
      "stateMutability": "nonpayable",
      "type": "function"
    },
    {
      "inputs": [
        {
          "internalType": "address",
          "name": "operator",
          "type": "address"
        },
        {
          "internalType": "bool",
          "name": "approved",
          "type": "bool"
        }
      ],
      "name": "setApprovalForAll",
      "outputs": [],
      "stateMutability": "nonpayable",
      "type": "function"
    },
    {
      "inputs": [
        {
          "internalType": "string",
          "name": "_newURI",
          "type": "string"
        }
      ],
      "name": "setURI",
      "outputs": [],
      "stateMutability": "nonpayable",
      "type": "function"
    },
    {
      "inputs": [
        {
          "internalType": "bytes4",
          "name": "interfaceId",
          "type": "bytes4"
        }
      ],
      "name": "supportsInterface",
      "outputs": [
        {
          "internalType": "bool",
          "name": "",
          "type": "bool"
        }
      ],
      "stateMutability": "view",
      "type": "function"
    },
    {
      "inputs": [],
      "name": "symbol",
      "outputs": [
        {
          "internalType": "string",
          "name": "",
          "type": "string"
        }
      ],
      "stateMutability": "view",
      "type": "function"
    },
    {
      "inputs": [
        {
          "internalType": "uint256",
          "name": "index",
          "type": "uint256"
        }
      ],
      "name": "tokenByIndex",
      "outputs": [
        {
          "internalType": "uint256",
          "name": "",
          "type": "uint256"
        }
      ],
      "stateMutability": "view",
      "type": "function"
    },
    {
      "inputs": [
        {
          "internalType": "address",
          "name": "owner",
          "type": "address"
        },
        {
          "internalType": "uint256",
          "name": "index",
          "type": "uint256"
        }
      ],
      "name": "tokenOfOwnerByIndex",
      "outputs": [
        {
          "internalType": "uint256",
          "name": "",
          "type": "uint256"
        }
      ],
      "stateMutability": "view",
      "type": "function"
    },
    {
      "inputs": [
        {
          "internalType": "uint256",
          "name": "tokenId",
          "type": "uint256"
        }
      ],
      "name": "tokenURI",
      "outputs": [
        {
          "internalType": "string",
          "name": "",
          "type": "string"
        }
      ],
      "stateMutability": "view",
      "type": "function"
    },
    {
      "inputs": [],
      "name": "totalSupply",
      "outputs": [
        {
          "internalType": "uint256",
          "name": "",
          "type": "uint256"
        }
      ],
      "stateMutability": "view",
      "type": "function"
    },
    {
      "inputs": [
        {
          "internalType": "address",
          "name": "from",
          "type": "address"
        },
        {
          "internalType": "address",
          "name": "to",
          "type": "address"
        },
        {
          "internalType": "uint256",
          "name": "tokenId",
          "type": "uint256"
        }
      ],
      "name": "transferFrom",
      "outputs": [],
      "stateMutability": "nonpayable",
      "type": "function"
    },
    {
      "inputs": [
        {
          "internalType": "address",
          "name": "newOwner",
          "type": "address"
        }
      ],
      "name": "transferOwnership",
      "outputs": [],
      "stateMutability": "nonpayable",
      "type": "function"
    },
    {
      "inputs": [],
      "name": "unpause",
      "outputs": [],
      "stateMutability": "nonpayable",
      "type": "function"
    }
  ],
  "bytecode": "0x60c0604052600560808190526402e776562760dc1b60a09081526200002891600d9190620001ce565b5060408051808201909152600580825264173539b7b760d91b60209092019182526200005791600e91620001ce565b50620186a0600f553480156200006c57600080fd5b5060405162002803380380620028038339810160408190526200008f9162000341565b825183908390620000a8906000906020850190620001ce565b508051620000be906001906020840190620001ce565b5050600b805460ff1916905550620000d633620000ea565b620000e18162000144565b5050506200040f565b600b80546001600160a01b03838116610100818102610100600160a81b031985161790945560405193909204169182907f8be0079c531659141344cd1fd0a4f28419497f9722a3daafe3b4186f6b6457e090600090a35050565b6200014e62000167565b805162000163906010906020840190620001ce565b5050565b600b546001600160a01b03610100909104163314620001cc5760405162461bcd60e51b815260206004820181905260248201527f4f776e61626c653a2063616c6c6572206973206e6f7420746865206f776e6572604482015260640160405180910390fd5b565b828054620001dc90620003d2565b90600052602060002090601f0160209004810192826200020057600085556200024b565b82601f106200021b57805160ff19168380011785556200024b565b828001600101855582156200024b579182015b828111156200024b5782518255916020019190600101906200022e565b50620002599291506200025d565b5090565b5b808211156200025957600081556001016200025e565b634e487b7160e01b600052604160045260246000fd5b600082601f8301126200029c57600080fd5b81516001600160401b0380821115620002b957620002b962000274565b604051601f8301601f19908116603f01168101908282118183101715620002e457620002e462000274565b816040528381526020925086838588010111156200030157600080fd5b600091505b8382101562000325578582018301518183018401529082019062000306565b83821115620003375760008385830101525b9695505050505050565b6000806000606084860312156200035757600080fd5b83516001600160401b03808211156200036f57600080fd5b6200037d878388016200028a565b945060208601519150808211156200039457600080fd5b620003a2878388016200028a565b93506040860151915080821115620003b957600080fd5b50620003c8868287016200028a565b9150509250925092565b600181811c90821680620003e757607f821691505b602082108114156200040957634e487b7160e01b600052602260045260246000fd5b50919050565b6123e4806200041f6000396000f3fe608060405234801561001057600080fd5b50600436106101a95760003560e01c80636352211e116100f9578063b88d4fde11610097578063d204c45e11610071578063d204c45e1461034c578063e0391b091461035f578063e985e9c514610374578063f2fde38b146103b057600080fd5b8063b88d4fde1461031e578063c668286214610331578063c87b56dd1461033957600080fd5b80638456cb59116100d35780638456cb59146102e55780638da5cb5b146102ed57806395d89b4114610303578063a22cb4651461030b57600080fd5b80636352211e146102b757806370a08231146102ca578063715018a6146102dd57600080fd5b806318160ddd116101665780633f4ba83a116101405780633f4ba83a1461027e57806342842e0e146102865780634f6ccce7146102995780635c975abb146102ac57600080fd5b806318160ddd1461024657806323b872dd146102585780632f745c591461026b57600080fd5b806301ffc9a7146101ae57806302fe5305146101d657806303b0f38d146101eb57806306fdde0314610200578063081812fc14610208578063095ea7b314610233575b600080fd5b6101c16101bc366004611ce6565b6103c3565b60405190151581526020015b60405180910390f35b6101e96101e4366004611daf565b6103d4565b005b6101f36103f3565b6040516101cd9190611e3c565b6101f3610481565b61021b610216366004611e4f565b610513565b6040516001600160a01b0390911681526020016101cd565b6101e9610241366004611e84565b61053a565b6008545b6040519081526020016101cd565b6101e9610266366004611eae565b610655565b61024a610279366004611e84565b610686565b6101e961071c565b6101e9610294366004611eae565b61072e565b61024a6102a7366004611e4f565b610749565b600b5460ff166101c1565b61021b6102c5366004611e4f565b6107dc565b61024a6102d8366004611eea565b61083c565b6101e96108c2565b6101e96108d4565b600b5461010090046001600160a01b031661021b565b6101f36108e4565b6101e9610319366004611f05565b6108f3565b6101e961032c366004611f41565b6108fe565b6101f3610936565b6101f3610347366004611e4f565b610943565b6101e961035a366004611fbd565b61094e565b610367610b00565b6040516101cd919061200b565b6101c16103823660046120a2565b6001600160a01b03918216600090815260056020908152604080832093909416825291909152205460ff1690565b6101e96103be366004611eea565b610c1b565b60006103ce82610c94565b92915050565b6103dc610cb9565b80516103ef906010906020840190611c37565b5050565b600d8054610400906120d5565b80601f016020809104026020016040519081016040528092919081815260200182805461042c906120d5565b80156104795780601f1061044e57610100808354040283529160200191610479565b820191906000526020600020905b81548152906001019060200180831161045c57829003601f168201915b505050505081565b606060008054610490906120d5565b80601f01602080910402602001604051908101604052809291908181526020018280546104bc906120d5565b80156105095780601f106104de57610100808354040283529160200191610509565b820191906000526020600020905b8154815290600101906020018083116104ec57829003601f168201915b5050505050905090565b600061051e82610d19565b506000908152600460205260409020546001600160a01b031690565b6000610545826107dc565b9050806001600160a01b0316836001600160a01b031614156105b85760405162461bcd60e51b815260206004820152602160248201527f4552433732313a20617070726f76616c20746f2063757272656e74206f776e656044820152603960f91b60648201526084015b60405180910390fd5b336001600160a01b03821614806105d457506105d48133610382565b6106465760405162461bcd60e51b815260206004820152603d60248201527f4552433732313a20617070726f76652063616c6c6572206973206e6f7420746f60448201527f6b656e206f776e6572206f7220617070726f76656420666f7220616c6c00000060648201526084016105af565b6106508383610d78565b505050565b61065f3382610de6565b61067b5760405162461bcd60e51b81526004016105af90612110565b610650838383610e65565b60006106918361083c565b82106106f35760405162461bcd60e51b815260206004820152602b60248201527f455243373231456e756d657261626c653a206f776e657220696e646578206f7560448201526a74206f6620626f756e647360a81b60648201526084016105af565b506001600160a01b03919091166000908152600660209081526040808320938352929052205490565b610724610cb9565b61072c610fd6565b565b610650838383604051806020016040528060008152506108fe565b600061075460085490565b82106107b75760405162461bcd60e51b815260206004820152602c60248201527f455243373231456e756d657261626c653a20676c6f62616c20696e646578206f60448201526b7574206f6620626f756e647360a01b60648201526084016105af565b600882815481106107ca576107ca61215d565b90600052602060002001549050919050565b6000818152600260205260408120546001600160a01b0316806103ce5760405162461bcd60e51b8152602060048201526018602482015277115490cdcc8c4e881a5b9d985b1a59081d1bdad95b88125160421b60448201526064016105af565b60006001600160a01b0382166108a65760405162461bcd60e51b815260206004820152602960248201527f4552433732313a2061646472657373207a65726f206973206e6f7420612076616044820152683634b21037bbb732b960b91b60648201526084016105af565b506001600160a01b031660009081526003602052604090205490565b6108ca610cb9565b61072c6000611028565b6108dc610cb9565b61072c611082565b606060018054610490906120d5565b6103ef3383836110bf565b6109083383610de6565b6109245760405162461bcd60e51b81526004016105af90612110565b61093084848484611186565b50505050565b600e8054610400906120d5565b60606103ce826111b9565b600f54600c5411156109985760405162461bcd60e51b815260206004820152601360248201527213585e0b881cdd5c1c1b1e481c995858da1959606a1b60448201526064016105af565b600b5460ff16156109e15760405162461bcd60e51b81526020600482015260136024820152726d61696e74656e616e6365206f6e676f696e6760681b60448201526064016105af565b60006109ec600c5490565b90506109fc600c80546001019055565b610a0683826112c2565b610a1081836112dc565b604080516080810182528281523360208201526011918101610a3184611376565b81524260209182015282546001808201855560009485529382902083516004909202019081558282015193810180546001600160a01b0319166001600160a01b039095169490941790935560408201518051929392610a969260028501920190611c37565b50606082015181600301555050610aac81610943565b604051610ab99190612173565b604080519182900382208383524260208401529133917f43568802999cffd3f0b491f11f2aa824d5971549b8ee74da2d7c832a03ac5e6091015b60405180910390a3505050565b60606011805480602002602001604051908101604052809291908181526020016000905b82821015610c1257600084815260209081902060408051608081018252600486029092018054835260018101546001600160a01b03169383019390935260028301805492939291840191610b77906120d5565b80601f0160208091040260200160405190810160405280929190818152602001828054610ba3906120d5565b8015610bf05780601f10610bc557610100808354040283529160200191610bf0565b820191906000526020600020905b815481529060010190602001808311610bd357829003601f168201915b5050505050815260200160038201548152505081526020019060010190610b24565b50505050905090565b610c23610cb9565b6001600160a01b038116610c885760405162461bcd60e51b815260206004820152602660248201527f4f776e61626c653a206e6577206f776e657220697320746865207a65726f206160448201526564647265737360d01b60648201526084016105af565b610c9181611028565b50565b60006001600160e01b0319821663780e9d6360e01b14806103ce57506103ce826113e4565b600b546001600160a01b0361010090910416331461072c5760405162461bcd60e51b815260206004820181905260248201527f4f776e61626c653a2063616c6c6572206973206e6f7420746865206f776e657260448201526064016105af565b6000818152600260205260409020546001600160a01b0316610c915760405162461bcd60e51b8152602060048201526018602482015277115490cdcc8c4e881a5b9d985b1a59081d1bdad95b88125160421b60448201526064016105af565b600081815260046020526040902080546001600160a01b0319166001600160a01b0384169081179091558190610dad826107dc565b6001600160a01b03167f8c5be1e5ebec7d5bd14f71427d1e84f3dd0314c0f7b2291e5b200ac8c7c3b92560405160405180910390a45050565b600080610df2836107dc565b9050806001600160a01b0316846001600160a01b03161480610e3957506001600160a01b0380821660009081526005602090815260408083209388168352929052205460ff165b80610e5d5750836001600160a01b0316610e5284610513565b6001600160a01b0316145b949350505050565b826001600160a01b0316610e78826107dc565b6001600160a01b031614610e9e5760405162461bcd60e51b81526004016105af9061218f565b6001600160a01b038216610f005760405162461bcd60e51b8152602060048201526024808201527f4552433732313a207472616e7366657220746f20746865207a65726f206164646044820152637265737360e01b60648201526084016105af565b610f0d8383836001611434565b826001600160a01b0316610f20826107dc565b6001600160a01b031614610f465760405162461bcd60e51b81526004016105af9061218f565b600081815260046020908152604080832080546001600160a01b03199081169091556001600160a01b0387811680865260038552838620805460001901905590871680865283862080546001019055868652600290945282852080549092168417909155905184937fddf252ad1be2c89b69c2b068fc378daa952ba7f163c4a11628f55a4df523b3ef91a4505050565b610fde611448565b600b805460ff191690557f5db9ee0a495bf2e6ff9c91a7834c1ba4fdd244a5e8aa4e537bd38aeae4b073aa335b6040516001600160a01b03909116815260200160405180910390a1565b600b80546001600160a01b03838116610100818102610100600160a81b031985161790945560405193909204169182907f8be0079c531659141344cd1fd0a4f28419497f9722a3daafe3b4186f6b6457e090600090a35050565b61108a611491565b600b805460ff191660011790557f62e78cea01bee320cd4e420270b5ea74000d11b0c9f74754ebdbfc544b05a25861100b3390565b816001600160a01b0316836001600160a01b031614156111215760405162461bcd60e51b815260206004820152601960248201527f4552433732313a20617070726f766520746f2063616c6c65720000000000000060448201526064016105af565b6001600160a01b03838116600081815260056020908152604080832094871680845294825291829020805460ff191686151590811790915591519182527f17307eab39ab6107e8899845ad3d59bd9653f200f220920489ca2b5937696c319101610af3565b611191848484610e65565b61119d848484846114d7565b6109305760405162461bcd60e51b81526004016105af906121d4565b60606111c482610d19565b6000828152600a6020526040812080546111dd906120d5565b80601f0160208091040260200160405190810160405280929190818152602001828054611209906120d5565b80156112565780601f1061122b57610100808354040283529160200191611256565b820191906000526020600020905b81548152906001019060200180831161123957829003601f168201915b50505050509050600061127460408051602081019091526000815290565b9050805160001415611287575092915050565b8151156112b95780826040516020016112a1929190612226565b60405160208183030381529060405292505050919050565b610e5d846115d5565b6103ef828260405180602001604052806000815250611632565b6000828152600260205260409020546001600160a01b03166113575760405162461bcd60e51b815260206004820152602e60248201527f45524337323155524953746f726167653a2055524920736574206f66206e6f6e60448201526d32bc34b9ba32b73a103a37b5b2b760911b60648201526084016105af565b6000828152600a60209081526040909120825161065092840190611c37565b6060600061138f60408051602081019091526000815290565b905060008151116113af57604051806020016040528060008152506113dd565b806113b984611665565b600d6040516020016113cd93929190612255565b6040516020818303038152906040525b9392505050565b60006001600160e01b031982166380ac58cd60e01b148061141557506001600160e01b03198216635b5e139f60e01b145b806103ce57506301ffc9a760e01b6001600160e01b03198316146103ce565b61143c611491565b61093084848484611702565b600b5460ff1661072c5760405162461bcd60e51b815260206004820152601460248201527314185d5cd8589b194e881b9bdd081c185d5cd95960621b60448201526064016105af565b600b5460ff161561072c5760405162461bcd60e51b815260206004820152601060248201526f14185d5cd8589b194e881c185d5cd95960821b60448201526064016105af565b60006001600160a01b0384163b156115ca57604051630a85bd0160e11b81526001600160a01b0385169063150b7a029061151b903390899088908890600401612319565b6020604051808303816000875af1925050508015611556575060408051601f3d908101601f1916820190925261155391810190612356565b60015b6115b0573d808015611584576040519150601f19603f3d011682016040523d82523d6000602084013e611589565b606091505b5080516115a85760405162461bcd60e51b81526004016105af906121d4565b805181602001fd5b6001600160e01b031916630a85bd0160e11b149050610e5d565b506001949350505050565b60606115e082610d19565b60006115f760408051602081019091526000815290565b9050600081511161161757604051806020016040528060008152506113dd565b8061162184611665565b6040516020016113cd929190612226565b61163c8383611836565b61164960008484846114d7565b6106505760405162461bcd60e51b81526004016105af906121d4565b60606000611672836119cf565b600101905060008167ffffffffffffffff81111561169257611692611d03565b6040519080825280601f01601f1916602001820160405280156116bc576020820181803683370190505b5090508181016020015b600019016f181899199a1a9b1b9c1cb0b131b232b360811b600a86061a8153600a85049450846116f5576116fa565b6116c6565b509392505050565b60018111156117715760405162461bcd60e51b815260206004820152603560248201527f455243373231456e756d657261626c653a20636f6e7365637574697665207472604482015274185b9cd9995c9cc81b9bdd081cdd5c1c1bdc9d1959605a1b60648201526084016105af565b816001600160a01b0385166117cd576117c881600880546000838152600960205260408120829055600182018355919091527ff3f7a9fe364faab93b216da50a3214154f22a0a2b415b23a84c8169e8b636ee30155565b6117f0565b836001600160a01b0316856001600160a01b0316146117f0576117f08582611aa7565b6001600160a01b03841661180c5761180781611b44565b61182f565b846001600160a01b0316846001600160a01b03161461182f5761182f8482611bf3565b5050505050565b6001600160a01b03821661188c5760405162461bcd60e51b815260206004820181905260248201527f4552433732313a206d696e7420746f20746865207a65726f206164647265737360448201526064016105af565b6000818152600260205260409020546001600160a01b0316156118f15760405162461bcd60e51b815260206004820152601c60248201527f4552433732313a20746f6b656e20616c7265616479206d696e7465640000000060448201526064016105af565b6118ff600083836001611434565b6000818152600260205260409020546001600160a01b0316156119645760405162461bcd60e51b815260206004820152601c60248201527f4552433732313a20746f6b656e20616c7265616479206d696e7465640000000060448201526064016105af565b6001600160a01b038216600081815260036020908152604080832080546001019055848352600290915280822080546001600160a01b0319168417905551839291907fddf252ad1be2c89b69c2b068fc378daa952ba7f163c4a11628f55a4df523b3ef908290a45050565b60008072184f03e93ff9f4daa797ed6e38ed64bf6a1f0160401b8310611a0e5772184f03e93ff9f4daa797ed6e38ed64bf6a1f0160401b830492506040015b6d04ee2d6d415b85acef81000000008310611a3a576d04ee2d6d415b85acef8100000000830492506020015b662386f26fc100008310611a5857662386f26fc10000830492506010015b6305f5e1008310611a70576305f5e100830492506008015b6127108310611a8457612710830492506004015b60648310611a96576064830492506002015b600a83106103ce5760010192915050565b60006001611ab48461083c565b611abe9190612373565b600083815260076020526040902054909150808214611b11576001600160a01b03841660009081526006602090815260408083208584528252808320548484528184208190558352600790915290208190555b5060009182526007602090815260408084208490556001600160a01b039094168352600681528383209183525290812055565b600854600090611b5690600190612373565b60008381526009602052604081205460088054939450909284908110611b7e57611b7e61215d565b906000526020600020015490508060088381548110611b9f57611b9f61215d565b6000918252602080832090910192909255828152600990915260408082208490558582528120556008805480611bd757611bd7612398565b6001900381819060005260206000200160009055905550505050565b6000611bfe8361083c565b6001600160a01b039093166000908152600660209081526040808320868452825280832085905593825260079052919091209190915550565b828054611c43906120d5565b90600052602060002090601f016020900481019282611c655760008555611cab565b82601f10611c7e57805160ff1916838001178555611cab565b82800160010185558215611cab579182015b82811115611cab578251825591602001919060010190611c90565b50611cb7929150611cbb565b5090565b5b80821115611cb75760008155600101611cbc565b6001600160e01b031981168114610c9157600080fd5b600060208284031215611cf857600080fd5b81356113dd81611cd0565b634e487b7160e01b600052604160045260246000fd5b600067ffffffffffffffff80841115611d3457611d34611d03565b604051601f8501601f19908116603f01168101908282118183101715611d5c57611d5c611d03565b81604052809350858152868686011115611d7557600080fd5b858560208301376000602087830101525050509392505050565b600082601f830112611da057600080fd5b6113dd83833560208501611d19565b600060208284031215611dc157600080fd5b813567ffffffffffffffff811115611dd857600080fd5b610e5d84828501611d8f565b60005b83811015611dff578181015183820152602001611de7565b838111156109305750506000910152565b60008151808452611e28816020860160208601611de4565b601f01601f19169290920160200192915050565b6020815260006113dd6020830184611e10565b600060208284031215611e6157600080fd5b5035919050565b80356001600160a01b0381168114611e7f57600080fd5b919050565b60008060408385031215611e9757600080fd5b611ea083611e68565b946020939093013593505050565b600080600060608486031215611ec357600080fd5b611ecc84611e68565b9250611eda60208501611e68565b9150604084013590509250925092565b600060208284031215611efc57600080fd5b6113dd82611e68565b60008060408385031215611f1857600080fd5b611f2183611e68565b915060208301358015158114611f3657600080fd5b809150509250929050565b60008060008060808587031215611f5757600080fd5b611f6085611e68565b9350611f6e60208601611e68565b925060408501359150606085013567ffffffffffffffff811115611f9157600080fd5b8501601f81018713611fa257600080fd5b611fb187823560208401611d19565b91505092959194509250565b60008060408385031215611fd057600080fd5b611fd983611e68565b9150602083013567ffffffffffffffff811115611ff557600080fd5b61200185828601611d8f565b9150509250929050565b60006020808301818452808551808352604092508286019150828160051b87010184880160005b8381101561209457888303603f19018552815180518452878101516001600160a01b0316888501528681015160808886018190529061207382870182611e10565b60609384015196909301959095525094870194925090860190600101612032565b509098975050505050505050565b600080604083850312156120b557600080fd5b6120be83611e68565b91506120cc60208401611e68565b90509250929050565b600181811c908216806120e957607f821691505b6020821081141561210a57634e487b7160e01b600052602260045260246000fd5b50919050565b6020808252602d908201527f4552433732313a2063616c6c6572206973206e6f7420746f6b656e206f776e6560408201526c1c881bdc88185c1c1c9bdd9959609a1b606082015260800190565b634e487b7160e01b600052603260045260246000fd5b60008251612185818460208701611de4565b9190910192915050565b60208082526025908201527f4552433732313a207472616e736665722066726f6d20696e636f72726563742060408201526437bbb732b960d91b606082015260800190565b60208082526032908201527f4552433732313a207472616e7366657220746f206e6f6e20455243373231526560408201527131b2b4bb32b91034b6b83632b6b2b73a32b960711b606082015260800190565b60008351612238818460208801611de4565b83519083019061224c818360208801611de4565b01949350505050565b6000845160206122688285838a01611de4565b85519184019161227b8184848a01611de4565b8554920191600090600181811c908083168061229857607f831692505b8583108114156122b657634e487b7160e01b85526022600452602485fd5b8080156122ca57600181146122db57612308565b60ff19851688528388019550612308565b60008b81526020902060005b858110156123005781548a8201529084019088016122e7565b505083880195505b50939b9a5050505050505050505050565b6001600160a01b038581168252841660208201526040810183905260806060820181905260009061234c90830184611e10565b9695505050505050565b60006020828403121561236857600080fd5b81516113dd81611cd0565b60008282101561239357634e487b7160e01b600052601160045260246000fd5b500390565b634e487b7160e01b600052603160045260246000fdfea26469706673582212202fce24ae0208ad9b1097206ea85139c96a9e3e2579f9597ef8f9c638df944ae364736f6c634300080b0033",
  "linkReferences": {},
  "deployedLinkReferences": {}
}