{
  "_format": "hh-sol-artifact-1",
  "contractName": "MyToken",
  "sourceName": "src/contracts/Diasosi.sol",
  "abi": [
    {
      "inputs": [
        {
          "internalType": "string",
          "name": "_name",
          "type": "string"
        },
        {
          "internalType": "string",
          "name": "_symbol",
          "type": "string"
        },
        {
          "internalType": "string",
          "name": "_initBaseURI",
          "type": "string"
        }
      ],
      "stateMutability": "nonpayable",
      "type": "constructor"
    },
    {
      "anonymous": false,
      "inputs": [
        {
          "indexed": true,
          "internalType": "address",
          "name": "owner",
          "type": "address"
        },
        {
          "indexed": true,
          "internalType": "address",
          "name": "approved",
          "type": "address"
        },
        {
          "indexed": true,
          "internalType": "uint256",
          "name": "tokenId",
          "type": "uint256"
        }
      ],
      "name": "Approval",
      "type": "event"
    },
    {
      "anonymous": false,
      "inputs": [
        {
          "indexed": true,
          "internalType": "address",
          "name": "owner",
          "type": "address"
        },
        {
          "indexed": true,
          "internalType": "address",
          "name": "operator",
          "type": "address"
        },
        {
          "indexed": false,
          "internalType": "bool",
          "name": "approved",
          "type": "bool"
        }
      ],
      "name": "ApprovalForAll",
      "type": "event"
    },
    {
      "anonymous": false,
      "inputs": [
        {
          "indexed": true,
          "internalType": "address",
          "name": "previousOwner",
          "type": "address"
        },
        {
          "indexed": true,
          "internalType": "address",
          "name": "newOwner",
          "type": "address"
        }
      ],
      "name": "OwnershipTransferred",
      "type": "event"
    },
    {
      "anonymous": false,
      "inputs": [
        {
          "indexed": false,
          "internalType": "address",
          "name": "account",
          "type": "address"
        }
      ],
      "name": "Paused",
      "type": "event"
    },
    {
      "anonymous": false,
      "inputs": [
        {
          "indexed": true,
          "internalType": "address",
          "name": "from",
          "type": "address"
        },
        {
          "indexed": true,
          "internalType": "address",
          "name": "to",
          "type": "address"
        },
        {
          "indexed": true,
          "internalType": "uint256",
          "name": "tokenId",
          "type": "uint256"
        }
      ],
      "name": "Transfer",
      "type": "event"
    },
    {
      "anonymous": false,
      "inputs": [
        {
          "indexed": false,
          "internalType": "address",
          "name": "account",
          "type": "address"
        }
      ],
      "name": "Unpaused",
      "type": "event"
    },
    {
      "anonymous": false,
      "inputs": [
        {
          "indexed": false,
          "internalType": "uint256",
          "name": "id",
          "type": "uint256"
        },
        {
          "indexed": true,
          "internalType": "address",
          "name": "buyer",
          "type": "address"
        },
        {
          "indexed": true,
          "internalType": "string",
          "name": "tokenURI",
          "type": "string"
        },
        {
          "indexed": false,
          "internalType": "uint256",
          "name": "timestamp",
          "type": "uint256"
        }
      ],
      "name": "onSale",
      "type": "event"
    },
    {
      "inputs": [
        {
          "internalType": "address",
          "name": "to",
          "type": "address"
        },
        {
          "internalType": "uint256",
          "name": "tokenId",
          "type": "uint256"
        }
      ],
      "name": "approve",
      "outputs": [],
      "stateMutability": "nonpayable",
      "type": "function"
    },
    {
      "inputs": [
        {
          "internalType": "address",
          "name": "owner",
          "type": "address"
        }
      ],
      "name": "balanceOf",
      "outputs": [
        {
          "internalType": "uint256",
          "name": "",
          "type": "uint256"
        }
      ],
      "stateMutability": "view",
      "type": "function"
    },
    {
      "inputs": [],
      "name": "baseExtension",
      "outputs": [
        {
          "internalType": "string",
          "name": "",
          "type": "string"
        }
      ],
      "stateMutability": "view",
      "type": "function"
    },
    {
      "inputs": [],
      "name": "baseImage",
      "outputs": [
        {
          "internalType": "string",
          "name": "",
          "type": "string"
        }
      ],
      "stateMutability": "view",
      "type": "function"
    },
    {
      "inputs": [],
      "name": "getAllNFTs",
      "outputs": [
        {
          "components": [
            {
              "internalType": "uint256",
              "name": "id",
              "type": "uint256"
            },
            {
              "internalType": "address",
              "name": "buyer",
              "type": "address"
            },
            {
              "internalType": "string",
              "name": "imageURL",
              "type": "string"
            },
            {
              "internalType": "uint256",
              "name": "timestamp",
              "type": "uint256"
            }
          ],
          "internalType": "struct MyToken.mintSale[]",
          "name": "",
          "type": "tuple[]"
        }
      ],
      "stateMutability": "view",
      "type": "function"
    },
    {
      "inputs": [
        {
          "internalType": "uint256",
          "name": "tokenId",
          "type": "uint256"
        }
      ],
      "name": "getApproved",
      "outputs": [
        {
          "internalType": "address",
          "name": "",
          "type": "address"
        }
      ],
      "stateMutability": "view",
      "type": "function"
    },
    {
      "inputs": [
        {
          "internalType": "address",
          "name": "owner",
          "type": "address"
        },
        {
          "internalType": "address",
          "name": "operator",
          "type": "address"
        }
      ],
      "name": "isApprovedForAll",
      "outputs": [
        {
          "internalType": "bool",
          "name": "",
          "type": "bool"
        }
      ],
      "stateMutability": "view",
      "type": "function"
    },
    {
      "inputs": [],
      "name": "name",
      "outputs": [
        {
          "internalType": "string",
          "name": "",
          "type": "string"
        }
      ],
      "stateMutability": "view",
      "type": "function"
    },
    {
      "inputs": [],
      "name": "owner",
      "outputs": [
        {
          "internalType": "address",
          "name": "",
          "type": "address"
        }
      ],
      "stateMutability": "view",
      "type": "function"
    },
    {
      "inputs": [
        {
          "internalType": "uint256",
          "name": "tokenId",
          "type": "uint256"
        }
      ],
      "name": "ownerOf",
      "outputs": [
        {
          "internalType": "address",
          "name": "",
          "type": "address"
        }
      ],
      "stateMutability": "view",
      "type": "function"
    },
    {
      "inputs": [],
      "name": "pause",
      "outputs": [],
      "stateMutability": "nonpayable",
      "type": "function"
    },
    {
      "inputs": [],
      "name": "paused",
      "outputs": [
        {
          "internalType": "bool",
          "name": "",
          "type": "bool"
        }
      ],
      "stateMutability": "view",
      "type": "function"
    },
    {
      "inputs": [],
      "name": "renounceOwnership",
      "outputs": [],
      "stateMutability": "nonpayable",
      "type": "function"
    },
    {
      "inputs": [
        {
          "internalType": "string",
          "name": "uri",
          "type": "string"
        }
      ],
      "name": "safeMint",
      "outputs": [],
      "stateMutability": "nonpayable",
      "type": "function"
    },
    {
      "inputs": [
        {
          "internalType": "address",
          "name": "from",
          "type": "address"
        },
        {
          "internalType": "address",
          "name": "to",
          "type": "address"
        },
        {
          "internalType": "uint256",
          "name": "tokenId",
          "type": "uint256"
        }
      ],
      "name": "safeTransferFrom",
      "outputs": [],
      "stateMutability": "nonpayable",
      "type": "function"
    },
    {
      "inputs": [
        {
          "internalType": "address",
          "name": "from",
          "type": "address"
        },
        {
          "internalType": "address",
          "name": "to",
          "type": "address"
        },
        {
          "internalType": "uint256",
          "name": "tokenId",
          "type": "uint256"
        },
        {
          "internalType": "bytes",
          "name": "data",
          "type": "bytes"
        }
      ],
      "name": "safeTransferFrom",
      "outputs": [],
      "stateMutability": "nonpayable",
      "type": "function"
    },
    {
      "inputs": [
        {
          "internalType": "address",
          "name": "operator",
          "type": "address"
        },
        {
          "internalType": "bool",
          "name": "approved",
          "type": "bool"
        }
      ],
      "name": "setApprovalForAll",
      "outputs": [],
      "stateMutability": "nonpayable",
      "type": "function"
    },
    {
      "inputs": [
        {
          "internalType": "string",
          "name": "_newURI",
          "type": "string"
        }
      ],
      "name": "setURI",
      "outputs": [],
      "stateMutability": "nonpayable",
      "type": "function"
    },
    {
      "inputs": [
        {
          "internalType": "bytes4",
          "name": "interfaceId",
          "type": "bytes4"
        }
      ],
      "name": "supportsInterface",
      "outputs": [
        {
          "internalType": "bool",
          "name": "",
          "type": "bool"
        }
      ],
      "stateMutability": "view",
      "type": "function"
    },
    {
      "inputs": [],
      "name": "symbol",
      "outputs": [
        {
          "internalType": "string",
          "name": "",
          "type": "string"
        }
      ],
      "stateMutability": "view",
      "type": "function"
    },
    {
      "inputs": [
        {
          "internalType": "uint256",
          "name": "index",
          "type": "uint256"
        }
      ],
      "name": "tokenByIndex",
      "outputs": [
        {
          "internalType": "uint256",
          "name": "",
          "type": "uint256"
        }
      ],
      "stateMutability": "view",
      "type": "function"
    },
    {
      "inputs": [
        {
          "internalType": "address",
          "name": "owner",
          "type": "address"
        },
        {
          "internalType": "uint256",
          "name": "index",
          "type": "uint256"
        }
      ],
      "name": "tokenOfOwnerByIndex",
      "outputs": [
        {
          "internalType": "uint256",
          "name": "",
          "type": "uint256"
        }
      ],
      "stateMutability": "view",
      "type": "function"
    },
    {
      "inputs": [
        {
          "internalType": "uint256",
          "name": "tokenId",
          "type": "uint256"
        }
      ],
      "name": "tokenURI",
      "outputs": [
        {
          "internalType": "string",
          "name": "",
          "type": "string"
        }
      ],
      "stateMutability": "view",
      "type": "function"
    },
    {
      "inputs": [],
      "name": "totalSupply",
      "outputs": [
        {
          "internalType": "uint256",
          "name": "",
          "type": "uint256"
        }
      ],
      "stateMutability": "view",
      "type": "function"
    },
    {
      "inputs": [
        {
          "internalType": "address",
          "name": "from",
          "type": "address"
        },
        {
          "internalType": "address",
          "name": "to",
          "type": "address"
        },
        {
          "internalType": "uint256",
          "name": "tokenId",
          "type": "uint256"
        }
      ],
      "name": "transferFrom",
      "outputs": [],
      "stateMutability": "nonpayable",
      "type": "function"
    },
    {
      "inputs": [
        {
          "internalType": "address",
          "name": "newOwner",
          "type": "address"
        }
      ],
      "name": "transferOwnership",
      "outputs": [],
      "stateMutability": "nonpayable",
      "type": "function"
    },
    {
      "inputs": [],
      "name": "unpause",
      "outputs": [],
      "stateMutability": "nonpayable",
      "type": "function"
    }
  ],
  "bytecode": "0x60c0604052600560808190526402e776562760dc1b60a09081526200002891600d9190620001ce565b5060408051808201909152600580825264173539b7b760d91b60209092019182526200005791600e91620001ce565b50620186a0600f553480156200006c57600080fd5b5060405162002694380380620026948339810160408190526200008f9162000341565b825183908390620000a8906000906020850190620001ce565b508051620000be906001906020840190620001ce565b5050600b805460ff1916905550620000d633620000ea565b620000e18162000144565b5050506200040f565b600b80546001600160a01b03838116610100818102610100600160a81b031985161790945560405193909204169182907f8be0079c531659141344cd1fd0a4f28419497f9722a3daafe3b4186f6b6457e090600090a35050565b6200014e62000167565b805162000163906010906020840190620001ce565b5050565b600b546001600160a01b03610100909104163314620001cc5760405162461bcd60e51b815260206004820181905260248201527f4f776e61626c653a2063616c6c6572206973206e6f7420746865206f776e6572604482015260640160405180910390fd5b565b828054620001dc90620003d2565b90600052602060002090601f0160209004810192826200020057600085556200024b565b82601f106200021b57805160ff19168380011785556200024b565b828001600101855582156200024b579182015b828111156200024b5782518255916020019190600101906200022e565b50620002599291506200025d565b5090565b5b808211156200025957600081556001016200025e565b634e487b7160e01b600052604160045260246000fd5b600082601f8301126200029c57600080fd5b81516001600160401b0380821115620002b957620002b962000274565b604051601f8301601f19908116603f01168101908282118183101715620002e457620002e462000274565b816040528381526020925086838588010111156200030157600080fd5b600091505b8382101562000325578582018301518183018401529082019062000306565b83821115620003375760008385830101525b9695505050505050565b6000806000606084860312156200035757600080fd5b83516001600160401b03808211156200036f57600080fd5b6200037d878388016200028a565b945060208601519150808211156200039457600080fd5b620003a2878388016200028a565b93506040860151915080821115620003b957600080fd5b50620003c8868287016200028a565b9150509250925092565b600181811c90821680620003e757607f821691505b602082108114156200040957634e487b7160e01b600052602260045260246000fd5b50919050565b612275806200041f6000396000f3fe608060405234801561001057600080fd5b50600436106101a95760003560e01c80636352211e116100f9578063a22cb46511610097578063c87b56dd11610071578063c87b56dd1461034c578063e0391b091461035f578063e985e9c514610374578063f2fde38b146103b057600080fd5b8063a22cb4651461031e578063b88d4fde14610331578063c66828621461034457600080fd5b8063715018a6116100d3578063715018a6146102f05780638456cb59146102f85780638da5cb5b1461030057806395d89b411461031657600080fd5b80636352211e146102b7578063695850fb146102ca57806370a08231146102dd57600080fd5b806318160ddd116101665780633f4ba83a116101405780633f4ba83a1461027e57806342842e0e146102865780634f6ccce7146102995780635c975abb146102ac57600080fd5b806318160ddd1461024657806323b872dd146102585780632f745c591461026b57600080fd5b806301ffc9a7146101ae57806302fe5305146101d657806303b0f38d146101eb57806306fdde0314610200578063081812fc14610208578063095ea7b314610233575b600080fd5b6101c16101bc366004611c95565b6103c3565b60405190151581526020015b60405180910390f35b6101e96101e4366004611d3e565b6103d4565b005b6101f36103f3565b6040516101cd9190611ddf565b6101f3610481565b61021b610216366004611df2565b610513565b6040516001600160a01b0390911681526020016101cd565b6101e9610241366004611e27565b61053a565b6008545b6040519081526020016101cd565b6101e9610266366004611e51565b610655565b61024a610279366004611e27565b610686565b6101e961071c565b6101e9610294366004611e51565b61072e565b61024a6102a7366004611df2565b610749565b600b5460ff166101c1565b61021b6102c5366004611df2565b6107dc565b6101e96102d8366004611d3e565b61083c565b61024a6102eb366004611e8d565b6109ec565b6101e9610a72565b6101e9610a84565b600b5461010090046001600160a01b031661021b565b6101f3610a94565b6101e961032c366004611ea8565b610aa3565b6101e961033f366004611ee4565b610aae565b6101f3610ae6565b6101f361035a366004611df2565b610af3565b610367610afe565b6040516101cd9190611f60565b6101c1610382366004611ff7565b6001600160a01b03918216600090815260056020908152604080832093909416825291909152205460ff1690565b6101e96103be366004611e8d565b610c19565b60006103ce82610c92565b92915050565b6103dc610cb7565b80516103ef906010906020840190611be6565b5050565b600d80546104009061202a565b80601f016020809104026020016040519081016040528092919081815260200182805461042c9061202a565b80156104795780601f1061044e57610100808354040283529160200191610479565b820191906000526020600020905b81548152906001019060200180831161045c57829003601f168201915b505050505081565b6060600080546104909061202a565b80601f01602080910402602001604051908101604052809291908181526020018280546104bc9061202a565b80156105095780601f106104de57610100808354040283529160200191610509565b820191906000526020600020905b8154815290600101906020018083116104ec57829003601f168201915b5050505050905090565b600061051e82610d17565b506000908152600460205260409020546001600160a01b031690565b6000610545826107dc565b9050806001600160a01b0316836001600160a01b031614156105b85760405162461bcd60e51b815260206004820152602160248201527f4552433732313a20617070726f76616c20746f2063757272656e74206f776e656044820152603960f91b60648201526084015b60405180910390fd5b336001600160a01b03821614806105d457506105d48133610382565b6106465760405162461bcd60e51b815260206004820152603d60248201527f4552433732313a20617070726f76652063616c6c6572206973206e6f7420746f60448201527f6b656e206f776e6572206f7220617070726f76656420666f7220616c6c00000060648201526084016105af565b6106508383610d76565b505050565b61065f3382610de4565b61067b5760405162461bcd60e51b81526004016105af90612065565b610650838383610e63565b6000610691836109ec565b82106106f35760405162461bcd60e51b815260206004820152602b60248201527f455243373231456e756d657261626c653a206f776e657220696e646578206f7560448201526a74206f6620626f756e647360a81b60648201526084016105af565b506001600160a01b03919091166000908152600660209081526040808320938352929052205490565b610724610cb7565b61072c610fd4565b565b61065083838360405180602001604052806000815250610aae565b600061075460085490565b82106107b75760405162461bcd60e51b815260206004820152602c60248201527f455243373231456e756d657261626c653a20676c6f62616c20696e646578206f60448201526b7574206f6620626f756e647360a01b60648201526084016105af565b600882815481106107ca576107ca6120b2565b90600052602060002001549050919050565b6000818152600260205260408120546001600160a01b0316806103ce5760405162461bcd60e51b8152602060048201526018602482015277115490cdcc8c4e881a5b9d985b1a59081d1bdad95b88125160421b60448201526064016105af565b600f54600c5411156108865760405162461bcd60e51b815260206004820152601360248201527213585e0b881cdd5c1c1b1e481c995858da1959606a1b60448201526064016105af565b600b5460ff16156108cf5760405162461bcd60e51b81526020600482015260136024820152726d61696e74656e616e6365206f6e676f696e6760681b60448201526064016105af565b60006108da600c5490565b90506108ea600c80546001019055565b6108f43382611026565b6108fe8183611040565b60408051608081018252828152336020820152601191810161091f84610af3565b81524260209182015282546001808201855560009485529382902083516004909202019081558282015193810180546001600160a01b0319166001600160a01b0390951694909417909355604082015180519293926109849260028501920190611be6565b5060608201518160030155505061099a81610af3565b6040516109a791906120c8565b604080519182900382208383524260208401529133917f43568802999cffd3f0b491f11f2aa824d5971549b8ee74da2d7c832a03ac5e60910160405180910390a35050565b60006001600160a01b038216610a565760405162461bcd60e51b815260206004820152602960248201527f4552433732313a2061646472657373207a65726f206973206e6f7420612076616044820152683634b21037bbb732b960b91b60648201526084016105af565b506001600160a01b031660009081526003602052604090205490565b610a7a610cb7565b61072c60006110da565b610a8c610cb7565b61072c611134565b6060600180546104909061202a565b6103ef338383611171565b610ab83383610de4565b610ad45760405162461bcd60e51b81526004016105af90612065565b610ae084848484611240565b50505050565b600e80546104009061202a565b60606103ce82611273565b60606011805480602002602001604051908101604052809291908181526020016000905b82821015610c1057600084815260209081902060408051608081018252600486029092018054835260018101546001600160a01b03169383019390935260028301805492939291840191610b759061202a565b80601f0160208091040260200160405190810160405280929190818152602001828054610ba19061202a565b8015610bee5780601f10610bc357610100808354040283529160200191610bee565b820191906000526020600020905b815481529060010190602001808311610bd157829003601f168201915b5050505050815260200160038201548152505081526020019060010190610b22565b50505050905090565b610c21610cb7565b6001600160a01b038116610c865760405162461bcd60e51b815260206004820152602660248201527f4f776e61626c653a206e6577206f776e657220697320746865207a65726f206160448201526564647265737360d01b60648201526084016105af565b610c8f816110da565b50565b60006001600160e01b0319821663780e9d6360e01b14806103ce57506103ce8261137c565b600b546001600160a01b0361010090910416331461072c5760405162461bcd60e51b815260206004820181905260248201527f4f776e61626c653a2063616c6c6572206973206e6f7420746865206f776e657260448201526064016105af565b6000818152600260205260409020546001600160a01b0316610c8f5760405162461bcd60e51b8152602060048201526018602482015277115490cdcc8c4e881a5b9d985b1a59081d1bdad95b88125160421b60448201526064016105af565b600081815260046020526040902080546001600160a01b0319166001600160a01b0384169081179091558190610dab826107dc565b6001600160a01b03167f8c5be1e5ebec7d5bd14f71427d1e84f3dd0314c0f7b2291e5b200ac8c7c3b92560405160405180910390a45050565b600080610df0836107dc565b9050806001600160a01b0316846001600160a01b03161480610e3757506001600160a01b0380821660009081526005602090815260408083209388168352929052205460ff165b80610e5b5750836001600160a01b0316610e5084610513565b6001600160a01b0316145b949350505050565b826001600160a01b0316610e76826107dc565b6001600160a01b031614610e9c5760405162461bcd60e51b81526004016105af906120e4565b6001600160a01b038216610efe5760405162461bcd60e51b8152602060048201526024808201527f4552433732313a207472616e7366657220746f20746865207a65726f206164646044820152637265737360e01b60648201526084016105af565b610f0b83838360016113cc565b826001600160a01b0316610f1e826107dc565b6001600160a01b031614610f445760405162461bcd60e51b81526004016105af906120e4565b600081815260046020908152604080832080546001600160a01b03199081169091556001600160a01b0387811680865260038552838620805460001901905590871680865283862080546001019055868652600290945282852080549092168417909155905184937fddf252ad1be2c89b69c2b068fc378daa952ba7f163c4a11628f55a4df523b3ef91a4505050565b610fdc6113e0565b600b805460ff191690557f5db9ee0a495bf2e6ff9c91a7834c1ba4fdd244a5e8aa4e537bd38aeae4b073aa335b6040516001600160a01b03909116815260200160405180910390a1565b6103ef828260405180602001604052806000815250611429565b6000828152600260205260409020546001600160a01b03166110bb5760405162461bcd60e51b815260206004820152602e60248201527f45524337323155524953746f726167653a2055524920736574206f66206e6f6e60448201526d32bc34b9ba32b73a103a37b5b2b760911b60648201526084016105af565b6000828152600a60209081526040909120825161065092840190611be6565b600b80546001600160a01b03838116610100818102610100600160a81b031985161790945560405193909204169182907f8be0079c531659141344cd1fd0a4f28419497f9722a3daafe3b4186f6b6457e090600090a35050565b61113c61145c565b600b805460ff191660011790557f62e78cea01bee320cd4e420270b5ea74000d11b0c9f74754ebdbfc544b05a2586110093390565b816001600160a01b0316836001600160a01b031614156111d35760405162461bcd60e51b815260206004820152601960248201527f4552433732313a20617070726f766520746f2063616c6c65720000000000000060448201526064016105af565b6001600160a01b03838116600081815260056020908152604080832094871680845294825291829020805460ff191686151590811790915591519182527f17307eab39ab6107e8899845ad3d59bd9653f200f220920489ca2b5937696c31910160405180910390a3505050565b61124b848484610e63565b611257848484846114a2565b610ae05760405162461bcd60e51b81526004016105af90612129565b606061127e82610d17565b6000828152600a6020526040812080546112979061202a565b80601f01602080910402602001604051908101604052809291908181526020018280546112c39061202a565b80156113105780601f106112e557610100808354040283529160200191611310565b820191906000526020600020905b8154815290600101906020018083116112f357829003601f168201915b50505050509050600061132e60408051602081019091526000815290565b9050805160001415611341575092915050565b81511561137357808260405160200161135b92919061217b565b60405160208183030381529060405292505050919050565b610e5b846115a0565b60006001600160e01b031982166380ac58cd60e01b14806113ad57506001600160e01b03198216635b5e139f60e01b145b806103ce57506301ffc9a760e01b6001600160e01b03198316146103ce565b6113d461145c565b610ae084848484611614565b600b5460ff1661072c5760405162461bcd60e51b815260206004820152601460248201527314185d5cd8589b194e881b9bdd081c185d5cd95960621b60448201526064016105af565b6114338383611748565b61144060008484846114a2565b6106505760405162461bcd60e51b81526004016105af90612129565b600b5460ff161561072c5760405162461bcd60e51b815260206004820152601060248201526f14185d5cd8589b194e881c185d5cd95960821b60448201526064016105af565b60006001600160a01b0384163b1561159557604051630a85bd0160e11b81526001600160a01b0385169063150b7a02906114e69033908990889088906004016121aa565b6020604051808303816000875af1925050508015611521575060408051601f3d908101601f1916820190925261151e918101906121e7565b60015b61157b573d80801561154f576040519150601f19603f3d011682016040523d82523d6000602084013e611554565b606091505b5080516115735760405162461bcd60e51b81526004016105af90612129565b805181602001fd5b6001600160e01b031916630a85bd0160e11b149050610e5b565b506001949350505050565b60606115ab82610d17565b60006115c260408051602081019091526000815290565b905060008151116115e2576040518060200160405280600081525061160d565b806115ec846118e1565b6040516020016115fd92919061217b565b6040516020818303038152906040525b9392505050565b60018111156116835760405162461bcd60e51b815260206004820152603560248201527f455243373231456e756d657261626c653a20636f6e7365637574697665207472604482015274185b9cd9995c9cc81b9bdd081cdd5c1c1bdc9d1959605a1b60648201526084016105af565b816001600160a01b0385166116df576116da81600880546000838152600960205260408120829055600182018355919091527ff3f7a9fe364faab93b216da50a3214154f22a0a2b415b23a84c8169e8b636ee30155565b611702565b836001600160a01b0316856001600160a01b03161461170257611702858261197e565b6001600160a01b03841661171e5761171981611a1b565b611741565b846001600160a01b0316846001600160a01b031614611741576117418482611aca565b5050505050565b6001600160a01b03821661179e5760405162461bcd60e51b815260206004820181905260248201527f4552433732313a206d696e7420746f20746865207a65726f206164647265737360448201526064016105af565b6000818152600260205260409020546001600160a01b0316156118035760405162461bcd60e51b815260206004820152601c60248201527f4552433732313a20746f6b656e20616c7265616479206d696e7465640000000060448201526064016105af565b6118116000838360016113cc565b6000818152600260205260409020546001600160a01b0316156118765760405162461bcd60e51b815260206004820152601c60248201527f4552433732313a20746f6b656e20616c7265616479206d696e7465640000000060448201526064016105af565b6001600160a01b038216600081815260036020908152604080832080546001019055848352600290915280822080546001600160a01b0319168417905551839291907fddf252ad1be2c89b69c2b068fc378daa952ba7f163c4a11628f55a4df523b3ef908290a45050565b606060006118ee83611b0e565b600101905060008167ffffffffffffffff81111561190e5761190e611cb2565b6040519080825280601f01601f191660200182016040528015611938576020820181803683370190505b5090508181016020015b600019016f181899199a1a9b1b9c1cb0b131b232b360811b600a86061a8153600a850494508461197157611976565b611942565b509392505050565b6000600161198b846109ec565b6119959190612204565b6000838152600760205260409020549091508082146119e8576001600160a01b03841660009081526006602090815260408083208584528252808320548484528184208190558352600790915290208190555b5060009182526007602090815260408084208490556001600160a01b039094168352600681528383209183525290812055565b600854600090611a2d90600190612204565b60008381526009602052604081205460088054939450909284908110611a5557611a556120b2565b906000526020600020015490508060088381548110611a7657611a766120b2565b6000918252602080832090910192909255828152600990915260408082208490558582528120556008805480611aae57611aae612229565b6001900381819060005260206000200160009055905550505050565b6000611ad5836109ec565b6001600160a01b039093166000908152600660209081526040808320868452825280832085905593825260079052919091209190915550565b60008072184f03e93ff9f4daa797ed6e38ed64bf6a1f0160401b8310611b4d5772184f03e93ff9f4daa797ed6e38ed64bf6a1f0160401b830492506040015b6d04ee2d6d415b85acef81000000008310611b79576d04ee2d6d415b85acef8100000000830492506020015b662386f26fc100008310611b9757662386f26fc10000830492506010015b6305f5e1008310611baf576305f5e100830492506008015b6127108310611bc357612710830492506004015b60648310611bd5576064830492506002015b600a83106103ce5760010192915050565b828054611bf29061202a565b90600052602060002090601f016020900481019282611c145760008555611c5a565b82601f10611c2d57805160ff1916838001178555611c5a565b82800160010185558215611c5a579182015b82811115611c5a578251825591602001919060010190611c3f565b50611c66929150611c6a565b5090565b5b80821115611c665760008155600101611c6b565b6001600160e01b031981168114610c8f57600080fd5b600060208284031215611ca757600080fd5b813561160d81611c7f565b634e487b7160e01b600052604160045260246000fd5b600067ffffffffffffffff80841115611ce357611ce3611cb2565b604051601f8501601f19908116603f01168101908282118183101715611d0b57611d0b611cb2565b81604052809350858152868686011115611d2457600080fd5b858560208301376000602087830101525050509392505050565b600060208284031215611d5057600080fd5b813567ffffffffffffffff811115611d6757600080fd5b8201601f81018413611d7857600080fd5b610e5b84823560208401611cc8565b60005b83811015611da2578181015183820152602001611d8a565b83811115610ae05750506000910152565b60008151808452611dcb816020860160208601611d87565b601f01601f19169290920160200192915050565b60208152600061160d6020830184611db3565b600060208284031215611e0457600080fd5b5035919050565b80356001600160a01b0381168114611e2257600080fd5b919050565b60008060408385031215611e3a57600080fd5b611e4383611e0b565b946020939093013593505050565b600080600060608486031215611e6657600080fd5b611e6f84611e0b565b9250611e7d60208501611e0b565b9150604084013590509250925092565b600060208284031215611e9f57600080fd5b61160d82611e0b565b60008060408385031215611ebb57600080fd5b611ec483611e0b565b915060208301358015158114611ed957600080fd5b809150509250929050565b60008060008060808587031215611efa57600080fd5b611f0385611e0b565b9350611f1160208601611e0b565b925060408501359150606085013567ffffffffffffffff811115611f3457600080fd5b8501601f81018713611f4557600080fd5b611f5487823560208401611cc8565b91505092959194509250565b60006020808301818452808551808352604092508286019150828160051b87010184880160005b83811015611fe957888303603f19018552815180518452878101516001600160a01b03168885015286810151608088860181905290611fc882870182611db3565b60609384015196909301959095525094870194925090860190600101611f87565b509098975050505050505050565b6000806040838503121561200a57600080fd5b61201383611e0b565b915061202160208401611e0b565b90509250929050565b600181811c9082168061203e57607f821691505b6020821081141561205f57634e487b7160e01b600052602260045260246000fd5b50919050565b6020808252602d908201527f4552433732313a2063616c6c6572206973206e6f7420746f6b656e206f776e6560408201526c1c881bdc88185c1c1c9bdd9959609a1b606082015260800190565b634e487b7160e01b600052603260045260246000fd5b600082516120da818460208701611d87565b9190910192915050565b60208082526025908201527f4552433732313a207472616e736665722066726f6d20696e636f72726563742060408201526437bbb732b960d91b606082015260800190565b60208082526032908201527f4552433732313a207472616e7366657220746f206e6f6e20455243373231526560408201527131b2b4bb32b91034b6b83632b6b2b73a32b960711b606082015260800190565b6000835161218d818460208801611d87565b8351908301906121a1818360208801611d87565b01949350505050565b6001600160a01b03858116825284166020820152604081018390526080606082018190526000906121dd90830184611db3565b9695505050505050565b6000602082840312156121f957600080fd5b815161160d81611c7f565b60008282101561222457634e487b7160e01b600052601160045260246000fd5b500390565b634e487b7160e01b600052603160045260246000fdfea26469706673582212205bb7b5364a901abea39bedbe3a8dc12ded546e3ae807e56da3e961be5e83121564736f6c634300080b0033",
  "linkReferences": {},
  "deployedLinkReferences": {}
}