{
  "_format": "hh-sol-artifact-1",
  "contractName": "MyToken",
  "sourceName": "src/contracts/Diasosi.sol",
  "abi": [
    {
      "inputs": [
        {
          "internalType": "string",
          "name": "_name",
          "type": "string"
        },
        {
          "internalType": "string",
          "name": "_symbol",
          "type": "string"
        },
        {
          "internalType": "string",
          "name": "_initBaseURI",
          "type": "string"
        }
      ],
      "stateMutability": "nonpayable",
      "type": "constructor"
    },
    {
      "anonymous": false,
      "inputs": [
        {
          "indexed": true,
          "internalType": "address",
          "name": "owner",
          "type": "address"
        },
        {
          "indexed": true,
          "internalType": "address",
          "name": "approved",
          "type": "address"
        },
        {
          "indexed": true,
          "internalType": "uint256",
          "name": "tokenId",
          "type": "uint256"
        }
      ],
      "name": "Approval",
      "type": "event"
    },
    {
      "anonymous": false,
      "inputs": [
        {
          "indexed": true,
          "internalType": "address",
          "name": "owner",
          "type": "address"
        },
        {
          "indexed": true,
          "internalType": "address",
          "name": "operator",
          "type": "address"
        },
        {
          "indexed": false,
          "internalType": "bool",
          "name": "approved",
          "type": "bool"
        }
      ],
      "name": "ApprovalForAll",
      "type": "event"
    },
    {
      "anonymous": false,
      "inputs": [
        {
          "indexed": true,
          "internalType": "address",
          "name": "previousOwner",
          "type": "address"
        },
        {
          "indexed": true,
          "internalType": "address",
          "name": "newOwner",
          "type": "address"
        }
      ],
      "name": "OwnershipTransferred",
      "type": "event"
    },
    {
      "anonymous": false,
      "inputs": [
        {
          "indexed": false,
          "internalType": "address",
          "name": "account",
          "type": "address"
        }
      ],
      "name": "Paused",
      "type": "event"
    },
    {
      "anonymous": false,
      "inputs": [
        {
          "indexed": true,
          "internalType": "address",
          "name": "from",
          "type": "address"
        },
        {
          "indexed": true,
          "internalType": "address",
          "name": "to",
          "type": "address"
        },
        {
          "indexed": true,
          "internalType": "uint256",
          "name": "tokenId",
          "type": "uint256"
        }
      ],
      "name": "Transfer",
      "type": "event"
    },
    {
      "anonymous": false,
      "inputs": [
        {
          "indexed": false,
          "internalType": "address",
          "name": "account",
          "type": "address"
        }
      ],
      "name": "Unpaused",
      "type": "event"
    },
    {
      "anonymous": false,
      "inputs": [
        {
          "indexed": false,
          "internalType": "uint256",
          "name": "id",
          "type": "uint256"
        },
        {
          "indexed": true,
          "internalType": "address",
          "name": "buyer",
          "type": "address"
        },
        {
          "indexed": true,
          "internalType": "string",
          "name": "tokenURI",
          "type": "string"
        },
        {
          "indexed": false,
          "internalType": "uint256",
          "name": "timestamp",
          "type": "uint256"
        }
      ],
      "name": "onSale",
      "type": "event"
    },
    {
      "inputs": [
        {
          "internalType": "address",
          "name": "to",
          "type": "address"
        },
        {
          "internalType": "uint256",
          "name": "tokenId",
          "type": "uint256"
        }
      ],
      "name": "approve",
      "outputs": [],
      "stateMutability": "nonpayable",
      "type": "function"
    },
    {
      "inputs": [
        {
          "internalType": "address",
          "name": "owner",
          "type": "address"
        }
      ],
      "name": "balanceOf",
      "outputs": [
        {
          "internalType": "uint256",
          "name": "",
          "type": "uint256"
        }
      ],
      "stateMutability": "view",
      "type": "function"
    },
    {
      "inputs": [],
      "name": "baseExtension",
      "outputs": [
        {
          "internalType": "string",
          "name": "",
          "type": "string"
        }
      ],
      "stateMutability": "view",
      "type": "function"
    },
    {
      "inputs": [],
      "name": "baseImage",
      "outputs": [
        {
          "internalType": "string",
          "name": "",
          "type": "string"
        }
      ],
      "stateMutability": "view",
      "type": "function"
    },
    {
      "inputs": [],
      "name": "clickToMint",
      "outputs": [],
      "stateMutability": "nonpayable",
      "type": "function"
    },
    {
      "inputs": [],
      "name": "getAllNFTs",
      "outputs": [
        {
          "components": [
            {
              "internalType": "uint256",
              "name": "id",
              "type": "uint256"
            },
            {
              "internalType": "address",
              "name": "buyer",
              "type": "address"
            },
            {
              "internalType": "string",
              "name": "imageURL",
              "type": "string"
            },
            {
              "internalType": "uint256",
              "name": "timestamp",
              "type": "uint256"
            }
          ],
          "internalType": "struct MyToken.mintSale[]",
          "name": "",
          "type": "tuple[]"
        }
      ],
      "stateMutability": "view",
      "type": "function"
    },
    {
      "inputs": [
        {
          "internalType": "uint256",
          "name": "tokenId",
          "type": "uint256"
        }
      ],
      "name": "getApproved",
      "outputs": [
        {
          "internalType": "address",
          "name": "",
          "type": "address"
        }
      ],
      "stateMutability": "view",
      "type": "function"
    },
    {
      "inputs": [
        {
          "internalType": "address",
          "name": "owner",
          "type": "address"
        },
        {
          "internalType": "address",
          "name": "operator",
          "type": "address"
        }
      ],
      "name": "isApprovedForAll",
      "outputs": [
        {
          "internalType": "bool",
          "name": "",
          "type": "bool"
        }
      ],
      "stateMutability": "view",
      "type": "function"
    },
    {
      "inputs": [],
      "name": "name",
      "outputs": [
        {
          "internalType": "string",
          "name": "",
          "type": "string"
        }
      ],
      "stateMutability": "view",
      "type": "function"
    },
    {
      "inputs": [],
      "name": "owner",
      "outputs": [
        {
          "internalType": "address",
          "name": "",
          "type": "address"
        }
      ],
      "stateMutability": "view",
      "type": "function"
    },
    {
      "inputs": [
        {
          "internalType": "uint256",
          "name": "tokenId",
          "type": "uint256"
        }
      ],
      "name": "ownerOf",
      "outputs": [
        {
          "internalType": "address",
          "name": "",
          "type": "address"
        }
      ],
      "stateMutability": "view",
      "type": "function"
    },
    {
      "inputs": [],
      "name": "pause",
      "outputs": [],
      "stateMutability": "nonpayable",
      "type": "function"
    },
    {
      "inputs": [],
      "name": "paused",
      "outputs": [
        {
          "internalType": "bool",
          "name": "",
          "type": "bool"
        }
      ],
      "stateMutability": "view",
      "type": "function"
    },
    {
      "inputs": [],
      "name": "renounceOwnership",
      "outputs": [],
      "stateMutability": "nonpayable",
      "type": "function"
    },
    {
      "inputs": [
        {
          "internalType": "address",
          "name": "from",
          "type": "address"
        },
        {
          "internalType": "address",
          "name": "to",
          "type": "address"
        },
        {
          "internalType": "uint256",
          "name": "tokenId",
          "type": "uint256"
        }
      ],
      "name": "safeTransferFrom",
      "outputs": [],
      "stateMutability": "nonpayable",
      "type": "function"
    },
    {
      "inputs": [
        {
          "internalType": "address",
          "name": "from",
          "type": "address"
        },
        {
          "internalType": "address",
          "name": "to",
          "type": "address"
        },
        {
          "internalType": "uint256",
          "name": "tokenId",
          "type": "uint256"
        },
        {
          "internalType": "bytes",
          "name": "data",
          "type": "bytes"
        }
      ],
      "name": "safeTransferFrom",
      "outputs": [],
      "stateMutability": "nonpayable",
      "type": "function"
    },
    {
      "inputs": [
        {
          "internalType": "address",
          "name": "operator",
          "type": "address"
        },
        {
          "internalType": "bool",
          "name": "approved",
          "type": "bool"
        }
      ],
      "name": "setApprovalForAll",
      "outputs": [],
      "stateMutability": "nonpayable",
      "type": "function"
    },
    {
      "inputs": [
        {
          "internalType": "string",
          "name": "_newURI",
          "type": "string"
        }
      ],
      "name": "setURI",
      "outputs": [],
      "stateMutability": "nonpayable",
      "type": "function"
    },
    {
      "inputs": [
        {
          "internalType": "bytes4",
          "name": "interfaceId",
          "type": "bytes4"
        }
      ],
      "name": "supportsInterface",
      "outputs": [
        {
          "internalType": "bool",
          "name": "",
          "type": "bool"
        }
      ],
      "stateMutability": "view",
      "type": "function"
    },
    {
      "inputs": [],
      "name": "symbol",
      "outputs": [
        {
          "internalType": "string",
          "name": "",
          "type": "string"
        }
      ],
      "stateMutability": "view",
      "type": "function"
    },
    {
      "inputs": [
        {
          "internalType": "uint256",
          "name": "index",
          "type": "uint256"
        }
      ],
      "name": "tokenByIndex",
      "outputs": [
        {
          "internalType": "uint256",
          "name": "",
          "type": "uint256"
        }
      ],
      "stateMutability": "view",
      "type": "function"
    },
    {
      "inputs": [
        {
          "internalType": "address",
          "name": "owner",
          "type": "address"
        },
        {
          "internalType": "uint256",
          "name": "index",
          "type": "uint256"
        }
      ],
      "name": "tokenOfOwnerByIndex",
      "outputs": [
        {
          "internalType": "uint256",
          "name": "",
          "type": "uint256"
        }
      ],
      "stateMutability": "view",
      "type": "function"
    },
    {
      "inputs": [
        {
          "internalType": "uint256",
          "name": "tokenId",
          "type": "uint256"
        }
      ],
      "name": "tokenURI",
      "outputs": [
        {
          "internalType": "string",
          "name": "",
          "type": "string"
        }
      ],
      "stateMutability": "view",
      "type": "function"
    },
    {
      "inputs": [],
      "name": "totalSupply",
      "outputs": [
        {
          "internalType": "uint256",
          "name": "",
          "type": "uint256"
        }
      ],
      "stateMutability": "view",
      "type": "function"
    },
    {
      "inputs": [
        {
          "internalType": "address",
          "name": "from",
          "type": "address"
        },
        {
          "internalType": "address",
          "name": "to",
          "type": "address"
        },
        {
          "internalType": "uint256",
          "name": "tokenId",
          "type": "uint256"
        }
      ],
      "name": "transferFrom",
      "outputs": [],
      "stateMutability": "nonpayable",
      "type": "function"
    },
    {
      "inputs": [
        {
          "internalType": "address",
          "name": "newOwner",
          "type": "address"
        }
      ],
      "name": "transferOwnership",
      "outputs": [],
      "stateMutability": "nonpayable",
      "type": "function"
    },
    {
      "inputs": [],
      "name": "unpause",
      "outputs": [],
      "stateMutability": "nonpayable",
      "type": "function"
    }
  ],
  "bytecode": "0x60c0604052600560808190526402e776562760dc1b60a09081526200002891600f9190620001cd565b5060408051808201909152600580825264173539b7b760d91b60209092019182526200005791601091620001cd565b506103e86011553480156200006b57600080fd5b506040516200267e3803806200267e8339810160408190526200008e9162000340565b825183908390620000a7906000906020850190620001cd565b508051620000bd906001906020840190620001cd565b5050600b805460ff1916905550620000d533620000e9565b620000e08162000143565b5050506200040e565b600b80546001600160a01b03838116610100818102610100600160a81b031985161790945560405193909204169182907f8be0079c531659141344cd1fd0a4f28419497f9722a3daafe3b4186f6b6457e090600090a35050565b6200014d62000166565b80516200016290600d906020840190620001cd565b5050565b600b546001600160a01b03610100909104163314620001cb5760405162461bcd60e51b815260206004820181905260248201527f4f776e61626c653a2063616c6c6572206973206e6f7420746865206f776e6572604482015260640160405180910390fd5b565b828054620001db90620003d1565b90600052602060002090601f016020900481019282620001ff57600085556200024a565b82601f106200021a57805160ff19168380011785556200024a565b828001600101855582156200024a579182015b828111156200024a5782518255916020019190600101906200022d565b50620002589291506200025c565b5090565b5b808211156200025857600081556001016200025d565b634e487b7160e01b600052604160045260246000fd5b600082601f8301126200029b57600080fd5b81516001600160401b0380821115620002b857620002b862000273565b604051601f8301601f19908116603f01168101908282118183101715620002e357620002e362000273565b816040528381526020925086838588010111156200030057600080fd5b600091505b8382101562000324578582018301518183018401529082019062000305565b83821115620003365760008385830101525b9695505050505050565b6000806000606084860312156200035657600080fd5b83516001600160401b03808211156200036e57600080fd5b6200037c8783880162000289565b945060208601519150808211156200039357600080fd5b620003a18783880162000289565b93506040860151915080821115620003b857600080fd5b50620003c78682870162000289565b9150509250925092565b600181811c90821680620003e657607f821691505b602082108114156200040857634e487b7160e01b600052602260045260246000fd5b50919050565b612260806200041e6000396000f3fe608060405234801561001057600080fd5b50600436106101a95760003560e01c80636352211e116100f9578063a655e1c711610097578063c87b56dd11610071578063c87b56dd14610341578063e0391b0914610354578063e985e9c514610369578063f2fde38b146103a557600080fd5b8063a655e1c71461031e578063b88d4fde14610326578063c66828621461033957600080fd5b80638456cb59116100d35780638456cb59146102e55780638da5cb5b146102ed57806395d89b4114610303578063a22cb4651461030b57600080fd5b80636352211e146102b757806370a08231146102ca578063715018a6146102dd57600080fd5b806318160ddd116101665780633f4ba83a116101405780633f4ba83a1461027e57806342842e0e146102865780634f6ccce7146102995780635c975abb146102ac57600080fd5b806318160ddd1461024657806323b872dd146102585780632f745c591461026b57600080fd5b806301ffc9a7146101ae57806302fe5305146101d657806303b0f38d146101eb57806306fdde0314610200578063081812fc14610208578063095ea7b314610233575b600080fd5b6101c16101bc366004611bc1565b6103b8565b60405190151581526020015b60405180910390f35b6101e96101e4366004611c71565b6103c9565b005b6101f36103e8565b6040516101cd9190611d12565b6101f3610476565b61021b610216366004611d25565b610508565b6040516001600160a01b0390911681526020016101cd565b6101e9610241366004611d5a565b61052f565b6008545b6040519081526020016101cd565b6101e9610266366004611d84565b61064a565b61024a610279366004611d5a565b61067b565b6101e9610711565b6101e9610294366004611d84565b610723565b61024a6102a7366004611d25565b61073e565b600b5460ff166101c1565b61021b6102c5366004611d25565b6107d1565b61024a6102d8366004611dc0565b610831565b6101e96108b7565b6101e96108c9565b600b5461010090046001600160a01b031661021b565b6101f36108d9565b6101e9610319366004611ddb565b6108e8565b6101e96108f3565b6101e9610334366004611e17565b610aba565b6101f3610af2565b6101f361034f366004611d25565b610aff565b61035c610be8565b6040516101cd9190611e93565b6101c1610377366004611f2a565b6001600160a01b03918216600090815260056020908152604080832093909416825291909152205460ff1690565b6101e96103b3366004611dc0565b610d03565b60006103c382610d7c565b92915050565b6103d1610da1565b80516103e490600d906020840190611b12565b5050565b600f80546103f590611f5d565b80601f016020809104026020016040519081016040528092919081815260200182805461042190611f5d565b801561046e5780601f106104435761010080835404028352916020019161046e565b820191906000526020600020905b81548152906001019060200180831161045157829003601f168201915b505050505081565b60606000805461048590611f5d565b80601f01602080910402602001604051908101604052809291908181526020018280546104b190611f5d565b80156104fe5780601f106104d3576101008083540402835291602001916104fe565b820191906000526020600020905b8154815290600101906020018083116104e157829003601f168201915b5050505050905090565b600061051382610e01565b506000908152600460205260409020546001600160a01b031690565b600061053a826107d1565b9050806001600160a01b0316836001600160a01b031614156105ad5760405162461bcd60e51b815260206004820152602160248201527f4552433732313a20617070726f76616c20746f2063757272656e74206f776e656044820152603960f91b60648201526084015b60405180910390fd5b336001600160a01b03821614806105c957506105c98133610377565b61063b5760405162461bcd60e51b815260206004820152603d60248201527f4552433732313a20617070726f76652063616c6c6572206973206e6f7420746f60448201527f6b656e206f776e6572206f7220617070726f76656420666f7220616c6c00000060648201526084016105a4565b6106458383610e60565b505050565b6106543382610ece565b6106705760405162461bcd60e51b81526004016105a490611f98565b610645838383610f4d565b600061068683610831565b82106106e85760405162461bcd60e51b815260206004820152602b60248201527f455243373231456e756d657261626c653a206f776e657220696e646578206f7560448201526a74206f6620626f756e647360a81b60648201526084016105a4565b506001600160a01b03919091166000908152600660209081526040808320938352929052205490565b610719610da1565b6107216110be565b565b61064583838360405180602001604052806000815250610aba565b600061074960085490565b82106107ac5760405162461bcd60e51b815260206004820152602c60248201527f455243373231456e756d657261626c653a20676c6f62616c20696e646578206f60448201526b7574206f6620626f756e647360a01b60648201526084016105a4565b600882815481106107bf576107bf611fe5565b90600052602060002001549050919050565b6000818152600260205260408120546001600160a01b0316806103c35760405162461bcd60e51b8152602060048201526018602482015277115490cdcc8c4e881a5b9d985b1a59081d1bdad95b88125160421b60448201526064016105a4565b60006001600160a01b03821661089b5760405162461bcd60e51b815260206004820152602960248201527f4552433732313a2061646472657373207a65726f206973206e6f7420612076616044820152683634b21037bbb732b960b91b60648201526084016105a4565b506001600160a01b031660009081526003602052604090205490565b6108bf610da1565b6107216000611110565b6108d1610da1565b61072161116a565b60606001805461048590611f5d565b6103e43383836111a7565b601154600c54111561093d5760405162461bcd60e51b815260206004820152601360248201527213585e0b881cdd5c1c1b1e481c995858da1959606a1b60448201526064016105a4565b600b5460ff16156109865760405162461bcd60e51b81526020600482015260136024820152726d61696e74656e616e6365206f6e676f696e6760681b60448201526064016105a4565b6000610991600c5490565b90506109a1600c80546001019055565b6109b633826109af81612011565b9350611276565b60408051608081018252828152336020820152600e9181016109e2846109db81612011565b9550611290565b81524260209182015282546001808201855560009485529382902083516004909202019081558282015193810180546001600160a01b0319166001600160a01b039095169490941790935560408201518051929392610a479260028501920190611b12565b50606082015181600301555050610a698180610a6290612011565b9250610aff565b604051610a76919061202c565b604080519182900382208383524260208401529133917f43568802999cffd3f0b491f11f2aa824d5971549b8ee74da2d7c832a03ac5e60910160405180910390a350565b610ac43383610ece565b610ae05760405162461bcd60e51b81526004016105a490611f98565b610aec848484846112e9565b50505050565b601080546103f590611f5d565b6000818152600260205260409020546060906001600160a01b0316610b7a5760405162461bcd60e51b815260206004820152602b60248201527f4552433732314d657461646174613a2055524920646f6573206e6f742065786960448201526a39ba32b73a103a37b5b2b760a91b60648201526084016105a4565b6000610b9160408051602081019091526000815290565b9050805160001415610bb3575050604080516020810190915260008152919050565b80610bbd8461131c565b6010604051602001610bd193929190612048565b604051602081830303815290604052915050919050565b6060600e805480602002602001604051908101604052809291908181526020016000905b82821015610cfa57600084815260209081902060408051608081018252600486029092018054835260018101546001600160a01b03169383019390935260028301805492939291840191610c5f90611f5d565b80601f0160208091040260200160405190810160405280929190818152602001828054610c8b90611f5d565b8015610cd85780601f10610cad57610100808354040283529160200191610cd8565b820191906000526020600020905b815481529060010190602001808311610cbb57829003601f168201915b5050505050815260200160038201548152505081526020019060010190610c0c565b50505050905090565b610d0b610da1565b6001600160a01b038116610d705760405162461bcd60e51b815260206004820152602660248201527f4f776e61626c653a206e6577206f776e657220697320746865207a65726f206160448201526564647265737360d01b60648201526084016105a4565b610d7981611110565b50565b60006001600160e01b0319821663780e9d6360e01b14806103c357506103c3826113b9565b600b546001600160a01b036101009091041633146107215760405162461bcd60e51b815260206004820181905260248201527f4f776e61626c653a2063616c6c6572206973206e6f7420746865206f776e657260448201526064016105a4565b6000818152600260205260409020546001600160a01b0316610d795760405162461bcd60e51b8152602060048201526018602482015277115490cdcc8c4e881a5b9d985b1a59081d1bdad95b88125160421b60448201526064016105a4565b600081815260046020526040902080546001600160a01b0319166001600160a01b0384169081179091558190610e95826107d1565b6001600160a01b03167f8c5be1e5ebec7d5bd14f71427d1e84f3dd0314c0f7b2291e5b200ac8c7c3b92560405160405180910390a45050565b600080610eda836107d1565b9050806001600160a01b0316846001600160a01b03161480610f2157506001600160a01b0380821660009081526005602090815260408083209388168352929052205460ff165b80610f455750836001600160a01b0316610f3a84610508565b6001600160a01b0316145b949350505050565b826001600160a01b0316610f60826107d1565b6001600160a01b031614610f865760405162461bcd60e51b81526004016105a49061210c565b6001600160a01b038216610fe85760405162461bcd60e51b8152602060048201526024808201527f4552433732313a207472616e7366657220746f20746865207a65726f206164646044820152637265737360e01b60648201526084016105a4565b610ff58383836001611409565b826001600160a01b0316611008826107d1565b6001600160a01b03161461102e5760405162461bcd60e51b81526004016105a49061210c565b600081815260046020908152604080832080546001600160a01b03199081169091556001600160a01b0387811680865260038552838620805460001901905590871680865283862080546001019055868652600290945282852080549092168417909155905184937fddf252ad1be2c89b69c2b068fc378daa952ba7f163c4a11628f55a4df523b3ef91a4505050565b6110c661141d565b600b805460ff191690557f5db9ee0a495bf2e6ff9c91a7834c1ba4fdd244a5e8aa4e537bd38aeae4b073aa335b6040516001600160a01b03909116815260200160405180910390a1565b600b80546001600160a01b03838116610100818102610100600160a81b031985161790945560405193909204169182907f8be0079c531659141344cd1fd0a4f28419497f9722a3daafe3b4186f6b6457e090600090a35050565b611172611466565b600b805460ff191660011790557f62e78cea01bee320cd4e420270b5ea74000d11b0c9f74754ebdbfc544b05a2586110f33390565b816001600160a01b0316836001600160a01b031614156112095760405162461bcd60e51b815260206004820152601960248201527f4552433732313a20617070726f766520746f2063616c6c65720000000000000060448201526064016105a4565b6001600160a01b03838116600081815260056020908152604080832094871680845294825291829020805460ff191686151590811790915591519182527f17307eab39ab6107e8899845ad3d59bd9653f200f220920489ca2b5937696c31910160405180910390a3505050565b6103e48282604051806020016040528060008152506114ac565b606060006112a960408051602081019091526000815290565b90508051600014156112cb575050604080516020810190915260008152919050565b806112d58461131c565b600f604051602001610bd193929190612048565b6112f4848484610f4d565b611300848484846114df565b610aec5760405162461bcd60e51b81526004016105a490612151565b60606000611329836115dd565b600101905060008167ffffffffffffffff81111561134957611349611be5565b6040519080825280601f01601f191660200182016040528015611373576020820181803683370190505b5090508181016020015b600019016f181899199a1a9b1b9c1cb0b131b232b360811b600a86061a8153600a85049450846113ac576113b1565b61137d565b509392505050565b60006001600160e01b031982166380ac58cd60e01b14806113ea57506001600160e01b03198216635b5e139f60e01b145b806103c357506301ffc9a760e01b6001600160e01b03198316146103c3565b611411611466565b610aec848484846116b5565b600b5460ff166107215760405162461bcd60e51b815260206004820152601460248201527314185d5cd8589b194e881b9bdd081c185d5cd95960621b60448201526064016105a4565b600b5460ff16156107215760405162461bcd60e51b815260206004820152601060248201526f14185d5cd8589b194e881c185d5cd95960821b60448201526064016105a4565b6114b683836117e9565b6114c360008484846114df565b6106455760405162461bcd60e51b81526004016105a490612151565b60006001600160a01b0384163b156115d257604051630a85bd0160e11b81526001600160a01b0385169063150b7a02906115239033908990889088906004016121a3565b6020604051808303816000875af192505050801561155e575060408051601f3d908101601f1916820190925261155b918101906121e0565b60015b6115b8573d80801561158c576040519150601f19603f3d011682016040523d82523d6000602084013e611591565b606091505b5080516115b05760405162461bcd60e51b81526004016105a490612151565b805181602001fd5b6001600160e01b031916630a85bd0160e11b149050610f45565b506001949350505050565b60008072184f03e93ff9f4daa797ed6e38ed64bf6a1f0160401b831061161c5772184f03e93ff9f4daa797ed6e38ed64bf6a1f0160401b830492506040015b6d04ee2d6d415b85acef81000000008310611648576d04ee2d6d415b85acef8100000000830492506020015b662386f26fc10000831061166657662386f26fc10000830492506010015b6305f5e100831061167e576305f5e100830492506008015b612710831061169257612710830492506004015b606483106116a4576064830492506002015b600a83106103c35760010192915050565b60018111156117245760405162461bcd60e51b815260206004820152603560248201527f455243373231456e756d657261626c653a20636f6e7365637574697665207472604482015274185b9cd9995c9cc81b9bdd081cdd5c1c1bdc9d1959605a1b60648201526084016105a4565b816001600160a01b0385166117805761177b81600880546000838152600960205260408120829055600182018355919091527ff3f7a9fe364faab93b216da50a3214154f22a0a2b415b23a84c8169e8b636ee30155565b6117a3565b836001600160a01b0316856001600160a01b0316146117a3576117a38582611982565b6001600160a01b0384166117bf576117ba81611a1f565b6117e2565b846001600160a01b0316846001600160a01b0316146117e2576117e28482611ace565b5050505050565b6001600160a01b03821661183f5760405162461bcd60e51b815260206004820181905260248201527f4552433732313a206d696e7420746f20746865207a65726f206164647265737360448201526064016105a4565b6000818152600260205260409020546001600160a01b0316156118a45760405162461bcd60e51b815260206004820152601c60248201527f4552433732313a20746f6b656e20616c7265616479206d696e7465640000000060448201526064016105a4565b6118b2600083836001611409565b6000818152600260205260409020546001600160a01b0316156119175760405162461bcd60e51b815260206004820152601c60248201527f4552433732313a20746f6b656e20616c7265616479206d696e7465640000000060448201526064016105a4565b6001600160a01b038216600081815260036020908152604080832080546001019055848352600290915280822080546001600160a01b0319168417905551839291907fddf252ad1be2c89b69c2b068fc378daa952ba7f163c4a11628f55a4df523b3ef908290a45050565b6000600161198f84610831565b61199991906121fd565b6000838152600760205260409020549091508082146119ec576001600160a01b03841660009081526006602090815260408083208584528252808320548484528184208190558352600790915290208190555b5060009182526007602090815260408084208490556001600160a01b039094168352600681528383209183525290812055565b600854600090611a31906001906121fd565b60008381526009602052604081205460088054939450909284908110611a5957611a59611fe5565b906000526020600020015490508060088381548110611a7a57611a7a611fe5565b6000918252602080832090910192909255828152600990915260408082208490558582528120556008805480611ab257611ab2612214565b6001900381819060005260206000200160009055905550505050565b6000611ad983610831565b6001600160a01b039093166000908152600660209081526040808320868452825280832085905593825260079052919091209190915550565b828054611b1e90611f5d565b90600052602060002090601f016020900481019282611b405760008555611b86565b82601f10611b5957805160ff1916838001178555611b86565b82800160010185558215611b86579182015b82811115611b86578251825591602001919060010190611b6b565b50611b92929150611b96565b5090565b5b80821115611b925760008155600101611b97565b6001600160e01b031981168114610d7957600080fd5b600060208284031215611bd357600080fd5b8135611bde81611bab565b9392505050565b634e487b7160e01b600052604160045260246000fd5b600067ffffffffffffffff80841115611c1657611c16611be5565b604051601f8501601f19908116603f01168101908282118183101715611c3e57611c3e611be5565b81604052809350858152868686011115611c5757600080fd5b858560208301376000602087830101525050509392505050565b600060208284031215611c8357600080fd5b813567ffffffffffffffff811115611c9a57600080fd5b8201601f81018413611cab57600080fd5b610f4584823560208401611bfb565b60005b83811015611cd5578181015183820152602001611cbd565b83811115610aec5750506000910152565b60008151808452611cfe816020860160208601611cba565b601f01601f19169290920160200192915050565b602081526000611bde6020830184611ce6565b600060208284031215611d3757600080fd5b5035919050565b80356001600160a01b0381168114611d5557600080fd5b919050565b60008060408385031215611d6d57600080fd5b611d7683611d3e565b946020939093013593505050565b600080600060608486031215611d9957600080fd5b611da284611d3e565b9250611db060208501611d3e565b9150604084013590509250925092565b600060208284031215611dd257600080fd5b611bde82611d3e565b60008060408385031215611dee57600080fd5b611df783611d3e565b915060208301358015158114611e0c57600080fd5b809150509250929050565b60008060008060808587031215611e2d57600080fd5b611e3685611d3e565b9350611e4460208601611d3e565b925060408501359150606085013567ffffffffffffffff811115611e6757600080fd5b8501601f81018713611e7857600080fd5b611e8787823560208401611bfb565b91505092959194509250565b60006020808301818452808551808352604092508286019150828160051b87010184880160005b83811015611f1c57888303603f19018552815180518452878101516001600160a01b03168885015286810151608088860181905290611efb82870182611ce6565b60609384015196909301959095525094870194925090860190600101611eba565b509098975050505050505050565b60008060408385031215611f3d57600080fd5b611f4683611d3e565b9150611f5460208401611d3e565b90509250929050565b600181811c90821680611f7157607f821691505b60208210811415611f9257634e487b7160e01b600052602260045260246000fd5b50919050565b6020808252602d908201527f4552433732313a2063616c6c6572206973206e6f7420746f6b656e206f776e6560408201526c1c881bdc88185c1c1c9bdd9959609a1b606082015260800190565b634e487b7160e01b600052603260045260246000fd5b634e487b7160e01b600052601160045260246000fd5b600060001982141561202557612025611ffb565b5060010190565b6000825161203e818460208701611cba565b9190910192915050565b60008451602061205b8285838a01611cba565b85519184019161206e8184848a01611cba565b8554920191600090600181811c908083168061208b57607f831692505b8583108114156120a957634e487b7160e01b85526022600452602485fd5b8080156120bd57600181146120ce576120fb565b60ff198516885283880195506120fb565b60008b81526020902060005b858110156120f35781548a8201529084019088016120da565b505083880195505b50939b9a5050505050505050505050565b60208082526025908201527f4552433732313a207472616e736665722066726f6d20696e636f72726563742060408201526437bbb732b960d91b606082015260800190565b60208082526032908201527f4552433732313a207472616e7366657220746f206e6f6e20455243373231526560408201527131b2b4bb32b91034b6b83632b6b2b73a32b960711b606082015260800190565b6001600160a01b03858116825284166020820152604081018390526080606082018190526000906121d690830184611ce6565b9695505050505050565b6000602082840312156121f257600080fd5b8151611bde81611bab565b60008282101561220f5761220f611ffb565b500390565b634e487b7160e01b600052603160045260246000fdfea26469706673582212202fc7d075f9d606d91eadde08e4c3e57c56c3547b0ec1bc2aeeebfeacd000142764736f6c634300080b0033",
  "linkReferences": {},
  "deployedLinkReferences": {}
}